:100000000C9438000C9442000C9442000C94420072
:100010000C9442000C9442000C9442000C94420058
:100020000C9442000C9442000C9442000C94420048
:100030000C9442000C9442000C9442000C94420038
:100040000C9442000C9442000C9442000C94420028
:100050000C9442000C9442000C9442000C94420018
:100060000C9442000C9442000C9442000C94420008
:1000700011241FBECFEFD4E0DEBFCDBF0E944400ED
:100080000C9469000C940000D09A8FE190E00E94DB
:100090005A00C1E08BB38C278BBB2FEF8FE797E023
:1000A000215080409040E1F700C0000083E60E94AC
:1000B0006100F0CF90BD89B988E18AB986E880BD3A
:1000C00008955D9BFECF8CB908955F9BFECF8CB1E8
:0600D0000895F894FFCF33
:00000001FF
