:100000000C9438000C9455000C9455000C94550039
:100010000C9455000C9455000C9455000C9455000C
:100020000C9455000C9455000C9455000C945500FC
:100030000C9455000C9455000C9455000C945500EC
:100040000C9455000C9455000C9455000C945500DC
:100050000C9455000C9455000C9455000C945500CC
:100060000C9455000C9455000C9455000C945500BC
:1000700011241FBECFEFD4E0DEBFCDBF11E0A0E062
:10008000B1E0EEE2FAE002C005900D92A031B107B6
:10009000D9F721E0A0E1B1E001C01D92AA31B20779
:1000A000E1F70E9457000C9415050C940000D09ABB
:1000B0008FE190E00E947D0080E090E0FF24F394C7
:1000C000C6E0D1E02BB32F252BBB2FEF3FE747E056
:1000D000215030404040E1F700C000008C010F5F2C
:1000E0001F4F9F938F93DF93CF930E94EF000F904A
:1000F0000F900F900F90C801E5CF90BD89B988E1AE
:100100008AB986E880BD61EA70E08EE890E00E94DE
:10011000A50008955D9BFECF8CB90895CF93C82F9D
:100120008A3039F08C2F0E948A0080E090E0CF91D5
:1001300008958DE00E948A00F5CF5F9BFECF8CB1C1
:1001400008950E949D0090E008950F931F93CF9310
:10015000DF93EC018B01892B51F4672B41F4E0E034
:10016000F0E0CF01DF91CF911F910F9108956EE0E4
:1001700070E081E090E00E94F002FC01892B79F3AD
:1001800080E883830115110571F01387028781E8E8
:1001900083838091100190911101892B21F4F093B8
:1001A0001101E09310012097E1F2D187C08783818C
:1001B000826083838091120190911301892B89F6CB
:1001C000F0931301E09312018091140190911501B5
:1001D000892B39F6F0931501E0931401C2CFA0E00A
:1001E000B0E0E5EFF0E00C94EE04AE014B5F5F4F42
:1001F000FA0161917191AF01809112019091130107
:100200000E940501E2E00C940A05ABE0B0E0EBE0EF
:10021000F1E00C94E1046C017B018A01FC0117827E
:100220001682838181FFD9C19AE0592EF60123817C
:10023000F70123FD859123FF81917F01811509F449
:100240001FC1853239F423FD959123FF91917F01E0
:10025000953229F4B60190E00E945004E7CF30E0D7
:10026000912C612C712CF0E27F1640F59B32D9F075
:1002700058F49032D1F09332F1F09E3299F576FC39
:10028000FFC0689476F806C09D3291F09033C1F4B7
:10029000689470F8F70123FD959123FF91917F01F8
:1002A0009111E1CF29C0689471F8689472F8F2CF87
:1002B000689473F8EFCF689474F8ECCF77FC1CC0A7
:1002C00080ED890F8A30C8F676FE05C0959C800DBA
:1002D0001124982EDFCF659C800D1124682E689420
:1002E00075F8D8CF9C3619F4689477F8D3CF9C343E
:1002F00009F44BC0983671F2892F8F7D8554833075
:1003000008F445C0933609F466C0933709F469C010
:10031000933509F475C0943619F0993609F09FC0E9
:10032000F80177FE95C061917191819191918F0152
:10033000272D2F76822E97FF09C090958095709576
:1003400061957F4F8F4F9F4F689487F82AE030E088
:10035000AE014F5F5F4F5A010E9480048A19A82E98
:1003600086FEC4C0882D8E7FA91408F0BEC084FE0E
:1003700011C182FC05C1F82DFE7E8F2EB92C882D6F
:100380008678811509F4BFC000C131E083CF3115F3
:10039000F9F0085F1F4F8FE3898388248394912CA1
:1003A000AE014F5F5F4F5A01E89477F873FC03C0CA
:1003B00086149104B0F181149104D1F5611409F40B
:1003C00035CFB60180E290E00E9450046A94F6CFE7
:1003D0000C5F1F4FE0CFF801808189830E5F1F4FB4
:1003E000DCCFF801A190B1908F01692D70E076FC0F
:1003F00002C06FEF7FEFC5010E9445044C01D4CFCE
:10040000F801A190B1908F01692D70E076FC02C0D7
:100410006FEF7FEFC5010E9433044C01689477F8B9
:10042000C5CFB60180E290E00E9450046A94C0CF2C
:10043000F50177FC859177FE81915F01B60190E02F
:100440000E94500461106A94F1E08F1A9108B3CFB2
:1004500061917191072E000C880B990B68CF872C46
:10046000E89484F82AE030E0953739F1572D597F28
:10047000852E903799F058F49835A9F09F36D9F029
:10048000F601868197812B96EFE00C94FD04983756
:10049000B9F774FC05C020E130E00FC0689484F81F
:1004A000689482F8F8CF74FE03C0872D8660882E8A
:1004B00020E132E002C028E030E0F80187FE10C001
:1004C00061917191819191918F01FE0131965F014E
:1004D000AF010E9480048A19A82EE89487F840CFC3
:1004E0006191719180E090E0EFCF882EBA2C84FE6C
:1004F00046CFFE01EA0DF11D8081803309F043C033
:10050000282D297E822E83FC0EC080FE4FC09A2C9F
:10051000B61418F4960C9B18B62C862D8B196B14F8
:1005200008F480E0B80EB61408F042C06B1884FEE0
:1005300041C0B60180E390E00E94500482FE09C0F1
:1005400088E590E081FC02C088E790E0B6010E9457
:100550005004A914D8F1AA94B12C4FEFA41AB40AEC
:10056000CE0101964C01A80EB91EF50182915F01E2
:10057000B60190E00E9450048A149B04B1F71ECF8C
:10058000B92C882EB6CF82FC02C0B394BCCFB394F2
:10059000B394B9CFB92C882EF2CEB60180E290E0A8
:1005A0000E94500473947614C0F3B7CF7B2CFBCF1A
:1005B000612CBDCF882D8678811559F280E281FCAF
:1005C0008BE287FC8DE2B60190E0C1CFB60180E3FB
:1005D00090E00E9450049A94BCCF8FEF9FEF53CFCE
:1005E0000F931F93CF93DF93869F8001879F100DFA
:1005F000969F100D1124C8010E940C03EC01009776
:1006000029F0A80160E070E00E943E04CE01DF9175
:10061000CF911F910F9108950F931F93CF93DF9365
:100620009C01029710F422E030E0E0911601F09175
:10063000170180E090E0A0E0B0E0309791F40097DF
:1006400009F448C0821B930B84309105D0F58A8150
:100650009B816115710581F1FB0193838283FE010A
:1006600011C0408151810281138142175307D8F094
:100670004217530799F4109761F012960C93129752
:1006800013961C933296CF01DF91CF911F910F915A
:1006900008950093160110931701F4CF009751F0BD
:1006A0004817590738F0AC01DB01CA01BD01DF0171
:1006B000F801C3CFEF01F9CF909317018093160192
:1006C000CECFFE01E80FF91F219331930297998352
:1006D0008883D9CF409118015091190141155105D6
:1006E00041F440910201509103015093190140934C
:1006F00018018091000190910101009741F48DB79C
:100700009EB76091040170910501861B970B4817F5
:10071000590708F0B8CF841B950B8217930708F48C
:10072000B2CFB9016E5F7F4F8617970708F4ABCF42
:10073000640F751F7093190160931801FA012193DA
:100740003193A1CFCF93DF939C010097E9F0FC0197
:10075000329713821282C0911601D0911701DE01E7
:1007600080E090E02097A1F480819181280F391FCB
:1007700080911801909119018217930709F068C0C0
:10078000F0931901E0931801DF91CF910895DA01F8
:10079000AE17BF0708F042C012964D915C911397B7
:1007A000CD014115510599F7DC011396FC93EE93A9
:1007B00012974D915D919D01240F351FE217F307AC
:1007C00081F4208131812E5F3F4F240F351FDC01E2
:1007D00011963C932E932281338113963C932E9352
:1007E0001297E0E0F0E08A819B810097B1F5DE018D
:1007F0008D919D918A0F9B1F2091180130911901B5
:100800002817390709F6309759F5109217011092F9
:100810001601D0931901C0931801B6CFB383A283F8
:1008200040815181240F351FA217B30771F44E5F29
:100830005F4F2D913C911197240F351F31832083F9
:1008400012962D913C9133832283009709F0ACCF0F
:10085000F0931701E093160197CFFE01EC01C3CF8F
:1008600013821282D6CFFC010590615070400110B6
:10087000D8F7809590958E0F9F1F0895DC0101C0D9
:100880006D9341505040E0F70895FC016150704075
:1008900001900110D8F7809590958E0F9F1F0895B5
:1008A0000F931F93CF93DF93182F092FEB018B81A9
:1008B00081FD09C01FEF0FEF812F902FDF91CF91A6
:1008C0001F910F91089582FF14C02E813F818C816A
:1008D0009D81281739073CF4E881F981CF01019601
:1008E0009983888310838E819F8101969F838E8355
:1008F000E3CFE885F985812F0995892BA1F3DACF1C
:10090000FA01AA27283051F1203181F1E8946F9340
:100910006E7F6E5F7F4F8F4F9F4FAF4FB1E03ED0E6
:10092000B4E03CD0670F781F891F9A1FA11D680F84
:10093000791F8A1F911DA11D6A0F711D811D911DB7
:10094000A11D20D009F468943F912AE0269F11242C
:100950003019305D3193DEF6CF010895462F477090
:10096000405D4193B3E00FD0C9F7F6CF462F4F70EB
:10097000405D4A3318F0495D31FD4052419302D049
:10098000A9F7EACFB4E0A6959795879577956795EF
:10099000BA95C9F700976105710508959B01AC01EF
:1009A0000A2E06945795479537952795BA95C9F716
:1009B000620F731F841F951FA01D08952F923F92F1
:1009C0004F925F926F927F928F929F92AF92BF925F
:1009D000CF92DF92EF92FF920F931F93CF93DF930B
:1009E000CDB7DEB7CA1BDB0B0FB6F894DEBF0FBE68
:1009F000CDBF09942A88398848885F846E847D84B5
:100A00008C849B84AA84B984C884DF80EE80FD80B6
:100A10000C811B81AA81B981CE0FD11D0FB6F8942C
:0E0A2000DEBF0FBECDBFED010895F894FFCFED
:100A2E0000001A012000626C696E6B2025750A00A9
:00000001FF
