:100000000C9438000C9455000C9455000C94550039
:100010000C9455000C9455000C9455000C9455000C
:100020000C9455000C9455000C9455000C945500FC
:100030000C9455000C9455000C9455000C945500EC
:100040000C9455000C9455000C9455000C945500DC
:100050000C9455000C9455000C9455000C945500CC
:100060000C9455000C9455000C9455000C945500BC
:1000700011241FBECFEFD4E0DEBFCDBF11E0A0E062
:10008000B1E0EEE6F4E002C005900D92A630B107B3
:10009000D9F721E0A6E0B1E001C01D92A031B2077E
:1000A000E1F70E9457000C9435020C94000085B7CC
:1000B000806885BF8FE190E00E94790021E030E008
:1000C00080E090E0F901082E02C0EE0FFF1F0A94B5
:1000D000E2F7F06110824FEF5FE764E0415050407B
:1000E0006040E1F700C0000001968830910551F7AB
:1000F000E7CF90BD89B988E18AB986E880BD6DE90E
:1001000070E08AE890E00E94A10008955D9BFECF18
:100110008CB90895CF93C82F8A3039F08C2F0E9464
:10012000860080E090E0CF9108958DE00E948600E7
:10013000F5CF5F9BFECF8CB108950E94990090E0AF
:1001400008950F931F93CF93DF93EC018B01892BBD
:1001500051F4672B41F4E0E0F0E0CF01DF91CF9163
:100160001F910F9108956EE070E081E090E00E9491
:10017000EB00FC01892B79F380E8838301151105DD
:1001800071F01387028781E8838380910601909143
:100190000701892B21F4F0930701E09306012097D2
:1001A000E1F2D187C08783818260838380910801D7
:1001B00090910901892B89F6F0930901E0930801D8
:1001C00080910A0190910B01892B39F6F0930B0174
:1001D000E0930A01C2CF0F931F93CF93DF93869FC3
:1001E0008001879F100D969F100D1124C8010E9459
:1001F0000701EC01009729F0A80160E070E00E947F
:100200002E02CE01DF91CF911F910F9108950F9390
:100210001F93CF93DF939C01029710F422E030E00C
:10022000E0910C01F0910D0180E090E0A0E0B0E0E1
:10023000309791F4009709F448C0821B930B8430E7
:100240009105D0F58A819B816115710581F1FB01D2
:1002500093838283FE0111C0408151810281138109
:1002600042175307D8F04217530799F4109761F0DB
:1002700012960C93129713961C933296CF01DF912E
:10028000CF911F910F91089500930C0110930D01D0
:10029000F4CF009751F04817590738F0AC01DB0153
:1002A000CA01BD01DF01F801C3CFEF01F9CF90937F
:1002B0000D0180930C01CECFFE01E80FF91F2193B1
:1002C0003193029799838883D9CF40910E01509141
:1002D0000F014115510541F4409102015091030174
:1002E00050930F0140930E01809100019091010104
:1002F000009741F48DB79EB760910401709105019C
:10030000861B970B4817590708F0B8CF841B950B2D
:100310008217930708F4B2CFB9016E5F7F4F86173B
:10032000970708F4ABCF640F751F70930F016093AC
:100330000E01FA0121933193A1CFCF93DF939C015A
:100340000097E9F0FC01329713821282C0910C01F0
:10035000D0910D01DE0180E090E02097A1F4808132
:100360009181280F391F80910E0190910F01821702
:10037000930709F068C0F0930F01E0930E01DF913D
:10038000CF910895DA01AE17BF0708F042C0129668
:100390004D915C911397CD014115510599F7DC0101
:1003A0001396FC93EE9312974D915D919D01240F4E
:1003B000351FE217F30781F4208131812E5F3F4F13
:1003C000240F351FDC0111963C932E93228133813B
:1003D00013963C932E931297E0E0F0E08A819B8184
:1003E0000097B1F5DE018D919D918A0F9B1F2091A1
:1003F0000E0130910F012817390709F6309759F58A
:1004000010920D0110920C01D0930F01C0930E01B8
:10041000B6CFB383A28340815181240F351FA21729
:10042000B30771F44E5F5F4F2D913C911197240FEC
:10043000351F3183208312962D913C913383228383
:10044000009709F0ACCFF0930D01E0930C0197CF2A
:10045000FE01EC01C3CF13821282D6CFDC0101C0B2
:0E0460006D9341505040E0F70895F894FFCF9F
:06046E0000001001200057
:00000001FF
